{
  "_format": "hh-sol-artifact-1",
  "contractName": "Event",
  "sourceName": "contracts/Event.sol",
  "abi": [
    {
      "inputs": [
        {
          "internalType": "address",
          "name": "_nftAddress",
          "type": "address"
        }
      ],
      "stateMutability": "nonpayable",
      "type": "constructor"
    },
    {
      "inputs": [
        {
          "internalType": "uint256",
          "name": "_nftID",
          "type": "uint256"
        }
      ],
      "name": "buyTicket",
      "outputs": [],
      "stateMutability": "payable",
      "type": "function"
    },
    {
      "inputs": [
        {
          "internalType": "uint256",
          "name": "",
          "type": "uint256"
        }
      ],
      "name": "eventOrganizer",
      "outputs": [
        {
          "internalType": "address",
          "name": "",
          "type": "address"
        }
      ],
      "stateMutability": "view",
      "type": "function"
    },
    {
      "inputs": [
        {
          "internalType": "uint256",
          "name": "",
          "type": "uint256"
        }
      ],
      "name": "eventProfit",
      "outputs": [
        {
          "internalType": "uint256",
          "name": "",
          "type": "uint256"
        }
      ],
      "stateMutability": "view",
      "type": "function"
    },
    {
      "inputs": [
        {
          "internalType": "uint256",
          "name": "",
          "type": "uint256"
        }
      ],
      "name": "eventRevenue",
      "outputs": [
        {
          "internalType": "uint256",
          "name": "",
          "type": "uint256"
        }
      ],
      "stateMutability": "view",
      "type": "function"
    },
    {
      "inputs": [
        {
          "internalType": "uint256",
          "name": "",
          "type": "uint256"
        }
      ],
      "name": "eventTicketQty",
      "outputs": [
        {
          "internalType": "uint256",
          "name": "",
          "type": "uint256"
        }
      ],
      "stateMutability": "view",
      "type": "function"
    },
    {
      "inputs": [],
      "name": "getBalance",
      "outputs": [
        {
          "internalType": "uint256",
          "name": "",
          "type": "uint256"
        }
      ],
      "stateMutability": "view",
      "type": "function"
    },
    {
      "inputs": [
        {
          "internalType": "uint256",
          "name": "",
          "type": "uint256"
        }
      ],
      "name": "isEventEnded",
      "outputs": [
        {
          "internalType": "bool",
          "name": "",
          "type": "bool"
        }
      ],
      "stateMutability": "view",
      "type": "function"
    },
    {
      "inputs": [
        {
          "internalType": "uint256",
          "name": "",
          "type": "uint256"
        }
      ],
      "name": "isTicketSold",
      "outputs": [
        {
          "internalType": "bool",
          "name": "",
          "type": "bool"
        }
      ],
      "stateMutability": "view",
      "type": "function"
    },
    {
      "inputs": [
        {
          "internalType": "uint256",
          "name": "_eventID",
          "type": "uint256"
        },
        {
          "internalType": "uint256",
          "name": "_eventTicketQty",
          "type": "uint256"
        }
      ],
      "name": "listEvent",
      "outputs": [],
      "stateMutability": "nonpayable",
      "type": "function"
    },
    {
      "inputs": [
        {
          "internalType": "uint256",
          "name": "_nftID",
          "type": "uint256"
        },
        {
          "internalType": "uint256",
          "name": "_rarityID",
          "type": "uint256"
        },
        {
          "internalType": "uint256",
          "name": "_eventID",
          "type": "uint256"
        },
        {
          "internalType": "uint256",
          "name": "_ticketPrice",
          "type": "uint256"
        }
      ],
      "name": "listTicket",
      "outputs": [],
      "stateMutability": "payable",
      "type": "function"
    },
    {
      "inputs": [],
      "name": "nftAddress",
      "outputs": [
        {
          "internalType": "address",
          "name": "",
          "type": "address"
        }
      ],
      "stateMutability": "view",
      "type": "function"
    },
    {
      "inputs": [],
      "name": "nftickets",
      "outputs": [
        {
          "internalType": "address payable",
          "name": "",
          "type": "address"
        }
      ],
      "stateMutability": "view",
      "type": "function"
    },
    {
      "inputs": [
        {
          "internalType": "uint256",
          "name": "",
          "type": "uint256"
        }
      ],
      "name": "ticketEventID",
      "outputs": [
        {
          "internalType": "uint256",
          "name": "",
          "type": "uint256"
        }
      ],
      "stateMutability": "view",
      "type": "function"
    },
    {
      "inputs": [
        {
          "internalType": "uint256",
          "name": "",
          "type": "uint256"
        }
      ],
      "name": "ticketPrice",
      "outputs": [
        {
          "internalType": "uint256",
          "name": "",
          "type": "uint256"
        }
      ],
      "stateMutability": "view",
      "type": "function"
    },
    {
      "inputs": [
        {
          "internalType": "uint256",
          "name": "",
          "type": "uint256"
        }
      ],
      "name": "ticketRarity",
      "outputs": [
        {
          "internalType": "uint256",
          "name": "",
          "type": "uint256"
        }
      ],
      "stateMutability": "view",
      "type": "function"
    },
    {
      "stateMutability": "payable",
      "type": "receive"
    }
  ],
  "bytecode": "0x608060405234801561001057600080fd5b50604051610d3c380380610d3c8339818101604052810190610032919061011c565b336000806101000a81548173ffffffffffffffffffffffffffffffffffffffff021916908373ffffffffffffffffffffffffffffffffffffffff16021790555080600160006101000a81548173ffffffffffffffffffffffffffffffffffffffff021916908373ffffffffffffffffffffffffffffffffffffffff16021790555050610149565b600080fd5b600073ffffffffffffffffffffffffffffffffffffffff82169050919050565b60006100e9826100be565b9050919050565b6100f9816100de565b811461010457600080fd5b50565b600081519050610116816100f0565b92915050565b600060208284031215610132576101316100b9565b5b600061014084828501610107565b91505092915050565b610be4806101586000396000f3fe6080604052600436106100ec5760003560e01c806367dd74ca1161008a578063d87c167c11610059578063d87c167c14610331578063dc7e5acf1461036e578063e2d1b7bd146103ab578063e92b1429146103d6576100f3565b806367dd74ca1461027f5780636ac594971461029b5780636fa605e3146102d8578063771dad5714610315576100f3565b80631fdbbd8f116100c65780631fdbbd8f1461019d5780635bf8633a146101da57806361e9798f1461020557806367db1a5214610242576100f3565b80630d93e609146100f857806312065fe0146101355780631c3fc18f14610160576100f3565b366100f357005b600080fd5b34801561010457600080fd5b5061011f600480360381019061011a91906108cb565b6103ff565b60405161012c9190610907565b60405180910390f35b34801561014157600080fd5b5061014a610417565b6040516101579190610907565b60405180910390f35b34801561016c57600080fd5b50610187600480360381019061018291906108cb565b61041f565b6040516101949190610907565b60405180910390f35b3480156101a957600080fd5b506101c460048036038101906101bf91906108cb565b610437565b6040516101d1919061093d565b60405180910390f35b3480156101e657600080fd5b506101ef610457565b6040516101fc9190610999565b60405180910390f35b34801561021157600080fd5b5061022c600480360381019061022791906108cb565b61047d565b6040516102399190610907565b60405180910390f35b34801561024e57600080fd5b50610269600480360381019061026491906108cb565b610495565b6040516102769190610999565b60405180910390f35b610299600480360381019061029491906108cb565b6104c8565b005b3480156102a757600080fd5b506102c260048036038101906102bd91906108cb565b61062d565b6040516102cf919061093d565b60405180910390f35b3480156102e457600080fd5b506102ff60048036038101906102fa91906108cb565b61064d565b60405161030c9190610907565b60405180910390f35b61032f600480360381019061032a91906109b4565b610665565b005b34801561033d57600080fd5b50610358600480360381019061035391906108cb565b610770565b6040516103659190610907565b60405180910390f35b34801561037a57600080fd5b50610395600480360381019061039091906108cb565b610788565b6040516103a29190610907565b60405180910390f35b3480156103b757600080fd5b506103c06107a0565b6040516103cd9190610a3c565b60405180910390f35b3480156103e257600080fd5b506103fd60048036038101906103f89190610a57565b6107c4565b005b60086020528060005260406000206000915090505481565b600047905090565b60096020528060005260406000206000915090505481565b600a6020528060005260406000206000915054906101000a900460ff1681565b600160009054906101000a900473ffffffffffffffffffffffffffffffffffffffff1681565b60056020528060005260406000206000915090505481565b60026020528060005260406000206000915054906101000a900473ffffffffffffffffffffffffffffffffffffffff1681565b6008600082815260200190815260200160002054341461051d576040517f08c379a000000000000000000000000000000000000000000000000000000000815260040161051490610af4565b60405180910390fd5b6001600a600083815260200190815260200160002060006101000a81548160ff0219169083151502179055506008600082815260200190815260200160002054600460006007600085815260200190815260200160002054815260200190815260200160002060008282546105929190610b43565b92505081905550600160009054906101000a900473ffffffffffffffffffffffffffffffffffffffff1673ffffffffffffffffffffffffffffffffffffffff166323b872dd3033846040518463ffffffff1660e01b81526004016105f893929190610b77565b600060405180830381600087803b15801561061257600080fd5b505af1158015610626573d6000803e3d6000fd5b5050505050565b60036020528060005260406000206000915054906101000a900460ff1681565b60046020528060005260406000206000915090505481565b600160009054906101000a900473ffffffffffffffffffffffffffffffffffffffff1673ffffffffffffffffffffffffffffffffffffffff166323b872dd3330876040518463ffffffff1660e01b81526004016106c493929190610b77565b600060405180830381600087803b1580156106de57600080fd5b505af11580156106f2573d6000803e3d6000fd5b505050508060086000868152602001908152602001600020819055508260096000868152602001908152602001600020819055508160076000868152602001908152602001600020819055506000600a600086815260200190815260200160002060006101000a81548160ff02191690831515021790555050505050565b60066020528060005260406000206000915090505481565b60076020528060005260406000206000915090505481565b60008054906101000a900473ffffffffffffffffffffffffffffffffffffffff1681565b336002600084815260200190815260200160002060006101000a81548173ffffffffffffffffffffffffffffffffffffffff021916908373ffffffffffffffffffffffffffffffffffffffff160217905550806006600084815260200190815260200160002081905550600060046000848152602001908152602001600020819055506000600560008481526020019081526020016000208190555060006003600084815260200190815260200160002060006101000a81548160ff0219169083151502179055505050565b600080fd5b6000819050919050565b6108a881610895565b81146108b357600080fd5b50565b6000813590506108c58161089f565b92915050565b6000602082840312156108e1576108e0610890565b5b60006108ef848285016108b6565b91505092915050565b61090181610895565b82525050565b600060208201905061091c60008301846108f8565b92915050565b60008115159050919050565b61093781610922565b82525050565b6000602082019050610952600083018461092e565b92915050565b600073ffffffffffffffffffffffffffffffffffffffff82169050919050565b600061098382610958565b9050919050565b61099381610978565b82525050565b60006020820190506109ae600083018461098a565b92915050565b600080600080608085870312156109ce576109cd610890565b5b60006109dc878288016108b6565b94505060206109ed878288016108b6565b93505060406109fe878288016108b6565b9250506060610a0f878288016108b6565b91505092959194509250565b6000610a2682610958565b9050919050565b610a3681610a1b565b82525050565b6000602082019050610a516000830184610a2d565b92915050565b60008060408385031215610a6e57610a6d610890565b5b6000610a7c858286016108b6565b9250506020610a8d858286016108b6565b9150509250929050565b600082825260208201905092915050565b7f5061796d656e74206d7573742062652065786163740000000000000000000000600082015250565b6000610ade601583610a97565b9150610ae982610aa8565b602082019050919050565b60006020820190508181036000830152610b0d81610ad1565b9050919050565b7f4e487b7100000000000000000000000000000000000000000000000000000000600052601160045260246000fd5b6000610b4e82610895565b9150610b5983610895565b9250828201905080821115610b7157610b70610b14565b5b92915050565b6000606082019050610b8c600083018661098a565b610b99602083018561098a565b610ba660408301846108f8565b94935050505056fea2646970667358221220154e93c064784290d59ea36c234c1a76edf1b141fbc22b4f457f1584e993d62164736f6c63430008110033",
  "linkReferences": {},
  "deployedLinkReferences": {}
}